:100000000C9434000C9451000C9451000C94510049
:100010000C9451000C9451000C9451000C9451001C
:100020000C9451000C94B2090C9451000C945100A2
:100030000C9467090C9451000C9451000C945100DD
:100040000C9451000C9451000C941F090C94510015
:100050000C9451000C9445090C9451000C945100DF
:100060000C9451000C94510011241FBECFEFD8E026
:10007000DEBFCDBF11E0A0E0B1E0EAE6F2E202C0EF
:1000800005900D92A034B107D9F721E0A0E4B1E0CA
:1000900001C01D92A838B207E1F70E94620A0C94D1
:1000A00033110C9400008091C00087FFFCCF809139
:1000B000C60090E0089578940895F894089590E02B
:1000C0008930910548F5FC01E859FF4F0C941B0E4F
:1000D0008A0071007C007E0080008200840086001F
:1000E000880081E09FB7F89420E820936100809316
:1000F00061009FBF80E0089582E0F4CF83E0F2CFFB
:1001000084E0F0CF85E0EECF86E0ECCF87E0EACF69
:1001100088E0E8CF80E0E6CF87E008959FB340E134
:10012000849F900111249F7C922B9FBB0895FB9A82
:100130000895FB980895F999FECF27B7937092BD63
:1001400081BD60BD8FB7F894FA9AF99A8FBF089570
:10015000F999FECF937092BD81BDF89A80B508954C
:1001600085B78F7E85BF089585B7806185BF089567
:100170008230F1F030F48823B1F08130B9F081E0C1
:1001800008958330C1F08F3FD1F76F3FC9F0809160
:1001900069008C7F613089F088F0623099F06330BB
:1001A00099F082E008955A98529AEFCF5A9AFCCF6C
:1001B0005A985298EACF5A9AFCCF8160809369008E
:1001C00080E008958260FACF8360F8CFE89A0895BE
:1001D000E8980895E09A08958230F1F030F4882389
:1001E000B1F08130B9F081E008958330C1F08F3FE4
:1001F000D1F76F3FC9F080916900837F613089F04A
:1002000088F0623099F0633099F082E008955B984D
:10021000539AEFCF5B9AFCCF5B985398EACF5B9AE7
:10022000FCCF84608093690080E008958860FACFF5
:100230008C60F8CFE99A0895E9980895E19A0895B5
:10024000E8E6F0E08081816080830895E8E6F0E0F0
:1002500080818E7F80830895D89A08958230B9F086
:1002600030F4882379F0813081F081E00895833083
:1002700089F08F3FD1F780916B00816080936B0094
:1002800080E008952898209AF6CF289AFCCF2898E5
:100290002098F1CF289AFCCFEBE6F0E080818E7FAA
:1002A000808308958230B9F030F4882379F081306A
:1002B00081F081E00895833089F08F3FD1F78091FC
:1002C0006B00826080936B0080E008952998219AEA
:1002D000F6CF299AFCCF29982198F1CF299AFCCF03
:1002E000EBE6F0E080818D7F808308958230B9F065
:1002F00030F4882379F0813081F081E008958330F3
:1003000089F08F3FD1F780916B00846080936B0000
:1003100080E008952A98229AF6CF2A9AFCCF2A984C
:100320002298F1CF2A9AFCCFEBE6F0E080818B7F18
:10033000808308958230B9F030F4882379F08130D9
:1003400081F081E00895833089F08F3FD1F780916B
:100350006B00886080936B0080E008952B98239A4F
:10036000F6CF2B9AFCCF2B982398F1CF2B9AFCCF6A
:10037000EBE6F0E08081877F808308958230B9F0DA
:1003800030F4882379F0813081F081E00895833062
:1003900089F08F3FD1F780916B00806180936B0073
:1003A00080E008952C98249AF6CF2C9AFCCF2C98B4
:1003B0002498F1CF2C9AFCCFEBE6F0E080818F7E81
:1003C000808308958230B9F030F4882379F0813049
:1003D00081F081E00895833089F08F3FD1F78091DB
:1003E0006B00806280936B0080E008952D98259AC1
:1003F000F6CF2D9AFCCF2D982598F1CF2D9AFCCFD2
:10040000EBE6F0E080818F7D808308958230B9F043
:1004100030F4882379F0813081F081E008958330D1
:1004200089F08F3FD1F780916B00806480936B00DF
:1004300080E008952E98269AF6CF2E9AFCCF2E981B
:100440002698F1CF2E9AFCCFEBE6F0E080818F7BEF
:10045000808308958230B9F030F4882379F08130B8
:1004600081F081E00895833089F08F3FD1F780914A
:100470006B00806880936B0080E008952F98279A26
:10048000F6CF2F9AFCCF2F982798F1CF2F9AFCCF39
:10049000EBE6F0E080818F7780830895E8E6F0E076
:1004A0008081826080830895E8E6F0E080818D7F1E
:1004B00080830895D99A08958230B9F030F4882362
:1004C00079F0813081F081E00895833089F08F3FA9
:1004D000D1F780916C00816080936C0080E008957A
:1004E0004098389AF6CF409AFCCF40983898F1CF90
:1004F000409AFCCFECE6F0E080818E7F8083089507
:100500008230B9F030F4882379F0813081F081E0D5
:100510000895833089F08F3FD1F780916C0082601D
:1005200080936C0080E008954198399AF6CF419A03
:10053000FCCF41983998F1CF419AFCCFECE6F0E03E
:1005400080818D7F808308958230B9F030F48823D4
:1005500079F0813081F081E00895833089F08F3F18
:10056000D1F780916C00846080936C0080E00895E6
:1005700042983A9AF6CF429AFCCF42983A98F1CFF5
:10058000429AFCCFECE6F0E080818B7F8083089577
:100590008230B9F030F4882379F0813081F081E045
:1005A0000895833089F08F3FD1F780916C00886087
:1005B00080936C0080E0089543983B9AF6CF439A6D
:1005C000FCCF43983B98F1CF439AFCCFECE6F0E0A8
:1005D0008081877F808308958230B9F030F488234A
:1005E00079F0813081F081E00895833089F08F3F88
:1005F000D1F780916C00806180936C0080E0089559
:1006000044983C9AF6CF449AFCCF44983C98F1CF5A
:10061000449AFCCFECE6F0E080818F7E80830895E1
:100620008230B9F030F4882379F0813081F081E0B4
:100630000895833089F08F3FD1F780916C008062FC
:1006400080936C0080E0089545983D9AF6CF459AD6
:10065000FCCF45983D98F1CF459AFCCFECE6F0E011
:1006600080818F7D808308958230B9F030F48823B3
:1006700079F0813081F081E00895833089F08F3FF7
:10068000D1F780916C00806480936C0080E00895C5
:1006900046983E9AF6CF469AFCCF46983E98F1CFC0
:1006A000469AFCCFECE6F0E080818F7B8083089552
:1006B000E8E6F0E08081846080830895E8E6F0E079
:1006C00080818B7F80830895DA9A08958230B9F013
:1006D00030F4882379F0813081F081E0089583300F
:1006E00089F08F3FD1F780916D00816080936D001C
:1006F00080E008955898509AF6CF589AFCCF5898B1
:100700005098F1CF589AFCCFEDE6F0E080818E7FD3
:10071000808308958230B9F030F4882379F08130F5
:1007200081F081E00895833089F08F3FD1F7809187
:100730006D00826080936D0080E008955998519A11
:10074000F6CF599AFCCF59985198F1CF599AFCCFCE
:10075000EDE6F0E080818D7F808308958230B9F0EE
:1007600030F4882379F0813081F081E0089583307E
:1007700089F08F3FD1F780916D00846080936D0088
:1007800080E008955A98529AF6CF5A9AFCCF5A9818
:100790005298F1CF5A9AFCCFEDE6F0E080818B7F42
:1007A000808308958230B9F030F4882379F0813065
:1007B00081F081E00895833089F08F3FD1F78091F7
:1007C0006D00886080936D0080E008955B98539A77
:1007D000F6CF5B9AFCCF5B985398F1CF5B9AFCCF36
:1007E000EDE6F0E08081877F808308958230B9F064
:1007F00030F4882379F0813081F081E008958330EE
:1008000089F08F3FD1F780916D00806180936D00FA
:1008100080E008955C98549AF6CF5C9AFCCF5C987F
:100820005498F1CF5C9AFCCFEDE6F0E080818F7EAA
:10083000808308958230B9F030F4882379F08130D4
:1008400081F081E00895833089F08F3FD1F7809166
:100850006D00806280936D0080E008955D98559AE8
:10086000F6CF5D9AFCCF5D985598F1CF5D9AFCCF9D
:10087000EDE6F0E080818F7D808308958230B9F0CD
:1008800030F4882379F0813081F081E0089583305D
:1008900089F08F3FD1F780916D00806480936D0067
:1008A00080E008955E98569AF6CF5E9AFCCF5E98E7
:1008B0005698F1CF5E9AFCCFEDE6F0E080818F7B19
:1008C000808308958230B9F030F4882379F0813044
:1008D00081F081E00895833089F08F3FD1F78091D6
:1008E0006D00806880936D0080E008955F98579A4E
:1008F000F6CF5F9AFCCF5F985798F1CF5F9AFCCF05
:10090000EDE6F0E080818F778083089524B595B57A
:100910006F3FA9F0987F462F50E04830510508F00E
:1009200039C0FA01EA56FB4F0C941B0E9F049E043B
:10093000AC04AE04B004B204B404B60491608F3FBA
:1009400001F12C7F977F8230D9F090F48823C9F091
:100950008130E1F084E008959260F1CF9360EFCFB1
:100960009460EDCF9560EBCF9660E9CF9760E7CFCD
:10097000853059F0873061F0833061F7236001C022
:10098000226024BD95BD80E0089598602160F9CF74
:100990009860F4CF83E0089594B58F3FE9F0292F54
:1009A0002F73813039F0B8F0823059F0833071F014
:1009B00081E008956F3F09F5922F906494BD80E027
:1009C00008956F3FE9F4922F9068F8CF6F3FE1F4FC
:1009D000922F906CF3CF922F6F3F81F39F7C8230E8
:1009E00089F030F4882351F3813011F79061E6CF1C
:1009F000833061F08F3F11F3DBCF9F709064F6CFAF
:100A00009F7090689062DACF9F70906C9063D6CFA1
:100A1000EEE6F0E08081816080830895EEE6F0E00C
:100A200080818E7F80830895A89A0895EEE6F0E095
:100A30008081826080830895EEE6F0E080818D7F82
:100A400080830895A99A0895EEE6F0E0808184609D
:100A500080830895EEE6F0E080818B7F80830895A7
:100A6000AA9A089585B5806885BD089585B5806486
:100A700085BD089586BD089586B5089587BD0895FE
:100A800087B5089588BD089588B5089520918000A0
:100A9000909181006F3F11F0987F962B8F3F49F026
:100AA00083FF0DC0906182FF0CC0986083702C7F23
:100AB000282B209380009093810080E008959F7EF2
:100AC000F2CF977FF3CF909180008F3F31F040E4D9
:100AD000849F900111249F73922B6F3F31F080E12E
:100AE000689FB00111249F7C962B9093800080E03A
:100AF0000895E1E8F0E090819F73892B808380E086
:100B00000895EFE6F0E080818160808380E00895C1
:100B1000EFE6F0E080818E7F808380E00895B09AD8
:100B200080E00895EFE6F0E080818260808380E0DD
:100B30000895EFE6F0E080818D7F808380E0089566
:100B4000B19A80E00895EFE6F0E0808184608083D0
:100B500080E00895EFE6F0E080818B7F808380E085
:100B60000895B29A80E00895EFE6F0E08081806217
:100B7000808380E00895EFE6F0E080818F7D8083C0
:100B800080E00895B59A80E00895E2E8F0E0808181
:100B90008068808380E00895E2E8F0E080818064EE
:100BA000808380E008959C019FB7F894309385007E
:100BB000209384009FBF80E00895809184009091ED
:100BC000850008959C019FB7F89430938900209385
:100BD00088009FBF80E008958091880090918900EF
:100BE00008959C019FB7F89430938B0020938A005E
:100BF0009FBF80E0089580918A0090918B000895B6
:100C00009C019FB7F89430938700209386009FBF84
:100C100080E008958091860090918700089520914A
:100C2000B0009091B1006F3F11F0987F962B8F3FED
:100C300031F082FF0AC0986083702C7F282B2093AC
:100C4000B0009093B10080E00895977FF5CF909128
:100C5000B0008F3F31F040E4849F900111249F73D6
:100C6000922B6F3F31F080E1689FB00111249F7C8F
:100C7000962B9093B00080E00895E0E7F0E080814B
:100C80008160808380E00895E0E7F0E080818E7FDE
:100C9000808380E00895B89A80E00895E0E7F0E06E
:100CA00080818260808380E00895E0E7F0E08081C9
:100CB0008D7F808380E00895B99A80E00895E0E711
:100CC000F0E080818460808380E00895E0E7F0E0D8
:100CD00080818B7F808380E00895BA9A80E00895B8
:100CE000E1EBF0E080818068808380E00895E1EBB3
:100CF000F0E080818064808380E008958093B2007A
:100D000080E008958091B20008958093B30080E060
:100D100008958091B30008958093B40080E0089511
:100D20008091B4000895E82F6F3F59F080917C00C6
:100D300090E4699F90011124682F6F73622B609378
:100D40007C004F3F31F080917A00887F482B4093A0
:100D50007A00EF3F39F0E11107C080917A008F7D72
:100D600080937A0080E0089590917B00987F4E2FC9
:100D700050E0FA013297E730F105F0F4EE53F94F05
:100D80000C941B0EC906D006D206D406D606D80689
:100D9000DA06916090937B0080917A008062E0CFC8
:100DA0009260F8CF9360F6CF9460F4CF9560F2CF65
:100DB0009660F0CF9760EECF87E00895ECE7F0E023
:100DC0009081907F892B808380E00895EEE7F0E0AA
:100DD000908180958923808380E00895EEE7F0E09C
:100DE0009081892B808380E00895811107C08091D4
:100DF0007C00806280937C0080E0089580917C007C
:100E00008F7DF8CFEAE7F0E080818068808380E022
:100E10000895EAE7F0E080818F77808380E008958D
:100E2000EAE7F0E080818061808380E00895EAE76E
:100E3000F0E080818860808380E00895EAE7F0E058
:100E40008081877F808380E00895EAE7F0E08081F9
:100E50008064808380E0089580917A0086FB8827F3
:100E600080F9089580917A0086FDFCCF80E0089596
:100E70008F929F92AF92BF92CF92DF92EF92FF92AA
:100E80000F934A015B019E2D3091C0003091C1004B
:100E90003091C2009F3F19F0923008F071C00F3FAF
:100EA00019F0033008F077C02F3F19F0253008F013
:100EB00072C08F3F09F04AC08091C200829586952A
:100EC00086958370C9F0833009F467C09FEF891657
:100ED0009906A906B906C1F160ED72E183E190E0DF
:100EE000A50194010E94F90D49015A0181E0881A77
:100EF0009108A108B10819C08091C00081FFE6CF18
:100F00008FEF88169806A806B806F1F060EA75E239
:100F100086E290E0A50194010E94F90D49015A0171
:100F200091E0891A9108A108B108C12CD12C760151
:100F30009401A501B601C70108E00E94230E2F709D
:100F40002093C5008092C40080E01BC09FEF8916EB
:100F50009906A906B906C1F38130C1F208F4BCCFE5
:100F6000843029F460E876E988E990E0B9CF812CF3
:100F7000912CA12CB12CC12CD12CE12CF12CD8CF4F
:100F800087E00F91FF90EF90DF90CF90BF90AF90F0
:100F90009F908F90089585E0F4CF9FEF8916990672
:100FA000A906B906F9F6D0CFE1ECF0E080818061C6
:100FB000808380E00895E1ECF0E080818F7E808383
:100FC00080E00895E1ECF0E080818860808380E03B
:100FD0000895E1ECF0E08081877F808380E00895D0
:100FE000E1ECF0E080818068808380E00895E1ECAE
:100FF000F0E080818F77808380E00895E1ECF0E07D
:1010000080818064808380E00895E1ECF0E080815D
:101010008F7B808380E00895E1ECF0E08081806246
:10102000808380E00895E1ECF0E080818F7D808313
:1010300080E00895E2E8F1E080E091E09583848328
:10104000938382839183808380E008958091C000A0
:10105000881F8827881F08958091C00086FB8827F5
:1010600080F908958091C00085FB882780F9089554
:10107000CF93C82F0E9432088823E1F3C093C600A3
:1010800080E0CF9108958091C00084FF0BC082E082
:101090009091C00093FD84609091C00092FF04C0C5
:1010A0008860089580E0F4CF811101C081E0089547
:1010B000CF93C82F0E9432088823E1F3C093C60063
:1010C00080E0CF910895CF93DF93EC010E94320826
:1010D0008823E1F38091C100D0FF09C08160809333
:1010E000C100C093C60080E0DF91CF9108958E7F4C
:1010F000F6CF8091C00087FFFCCF8091C000809127
:10110000C60008958091C00087FFFCCF8091C00089
:101110008091C1002091C60030E8839FC001112456
:1011200088279170822B08958091C00087FF0895D1
:101130008091C600F9CFCF92DF92EF92FF921F937A
:10114000CF93DF93182FC0917201D0E0BE016F5F83
:101150007F4F072E000C880B990B22E330E040E014
:1011600050E00E94F90D20917401C22ED12CE12C87
:10117000F12C6C157D058E059F0551F0C05CDE4F8E
:10118000188360937201809173018F5F8093730164
:10119000DF91CF911F91FF90EF90DF90CF90089556
:1011A000CF93DF936091740170E0FB01E05CFE4F30
:1011B000D081C0917301CC2389F06F5F7F4F072EE0
:1011C000000C880B990B22E330E040E050E00E94D5
:1011D000F90D60937401C150C09373018D2FDF919D
:1011E000CF91089581E090917301911180E008956D
:1011F00060E070E0CB01089508958EBD0DB407FC4A
:10120000FDCF8EB508950DB407FCFDCF8EB50895C2
:101210009C01CB01821B930B64E670E00E94E50DFC
:10122000469FC001479F900D1124280F391FC90107
:10123000880F991F36952795820F931F08951F9247
:101240000F920FB60F9211242F933F934F935F93FA
:101250006F937F938F939F93AF93BF93EF93FF937E
:101260000E9479080E949B08FF91EF91BF91AF9176
:101270009F918F917F916F915F914F913F912F91AE
:101280000F900FBE0F901F9018951F920F920FB6E0
:101290000F9211248F939F93809180018F5F982FDD
:1012A000977080918001887F892B80938001809145
:1012B00078009091790090937F0180937E01A89AA5
:1012C0009F918F910F900FBE0F901F9018951F92B6
:1012D0000F920FB60F9211242F933F934F935F936A
:1012E0006F937F938F939F93AF93BF93EF93FF93EE
:1012F00080917D0180FF23C04D9918C05D9A809137
:101300007501909176010E94F105FF91EF91BF91D7
:10131000AF919F918F917F916F915F914F913F918D
:101320002F910F900FBE0F901F9018955D98809190
:101330007D01880F80937D018CE69BE6E4CF809150
:101340007D0181FFE2CF4E9906C05E9A80917701C0
:1013500090917801D8CF5E9881E080937D0184ECF4
:1013600099E0D1CF1F920F920FB60F9211248F9355
:1013700081E0809381018F910F900FBE0F901F909D
:1013800018959F92AF92BF92CF92DF92EF92FF9209
:101390000F931F93CF93DF93EC016B018A017901C7
:1013A000AA24A3940E94F208982E882361F0DF916A
:1013B000CF911F910F91FF90EF90DF90CF90BF9052
:1013C000AF909F9008950E94D008B82E67E08FEFED
:1013D0000E940F068881882311F1813049F180E055
:1013E0000E947E06888190E0F801208130E02F5F26
:1013F0003F4F281739072CF50297292D30E0281781
:10140000390724F1FFEFBF1641F18EE091E00E9411
:10141000550EF70110821882F8011082C3CF8EE7B3
:10142000B812C0CFA88280E00E947E06289ABACF68
:1014300080E00E947E06F801B08288818F5F8883F9
:10144000B1CF8C0D9D1DFC013297F6CF2C0D3D1DAB
:10145000F9012081B20E9394D0CFF701A0821882B7
:1014600060E08FEF0E940F0680E00E947E069ACF18
:10147000CF93DF93FC018EE78083DB018D91815850
:10148000828393E03EEF390F341788F0DF01129624
:101490008FEF22E0291790F0DF01A90FB11D8E57C1
:1014A0008C93318381E0890FDF91CF9108958D91E5
:1014B000EF01C90FD11D88839F5FE4CF4D91841B3D
:1014C0002F5FE8CFCF93DF93CDB7DEB7CC51D140BC
:1014D0000FB6F894DEBF0FBECDBFCB5FDE4F1882D4
:1014E000C550D140CC5FDE4F1882C450D140CD5F93
:1014F000DE4F1882C350D14080E49E012F5F3F4FE2
:101500006901D901E82F1D92EA95E9F7FE01EF5B29
:10151000FF4FDF011D928A95E9F7CF5FDE4F1982F9
:101520001882C150D140C750DF4F19821882C95F5D
:10153000D040CB50DF4F19821882C55FD040109247
:101540007D0180917D01816080937D0144E853E0BD
:10155000C351DF4F59834883CD5ED0404E01B5EE75
:101560008B0E911C24E338E0F401318320835E016B
:10157000FDEFAF0EB11C82E3D5018C936AE678E1F2
:101580007093760160937501C151DF4F5983488391
:10159000CF5ED040F4013383228311968C9382E195
:1015A0009AE79093780180937701109281011092CD
:1015B0007F0110927E0180918001877F809380015E
:1015C000559A569AE12C00E023E040E056E960E0AD
:1015D00070E080E00E9438070E94D4070E94E20772
:1015E0000E94F0070E941A0865E080E00E948604CD
:1015F00080E593EC0E94E20584EC99E00E94F105FD
:1016000062E084E00E9446050E94A30567E080E056
:101610000E940F0660E08FEF0E940F0680E00E949C
:101620007E060E943D0647E061E085E00E94930649
:1016300083E00E94EE0683E00E94DE060E94170708
:101640000E9402077894CC5FDE4F8881C450D1405D
:10165000811131C09E012C5F3E4FAE014D5F5E4F48
:10166000BE016D547F4FCE018B5F9E4F0E94C1091A
:10167000809181018823C1F010928101CB5FDE4F00
:101680001882C550D140CD5FDE4F1882C350D14083
:10169000CC5FDE4F1882C450D14060E08FEF0E94D3
:1016A0000F0680E00E947E06CC5FDE4F8881C4502A
:1016B000D1408823B9F0CC5FDE4F1882C450D140AE
:1016C000CB5FDE4F1882C550D140CD54DF4F5880DC
:1016D000C35BD040F1E05F1609F47DC121E15216F1
:1016E00009F40BC2809180018770873009F070C1C6
:1016F00080918001887F809380019091800180910A
:1017000080012091800123FB662460F8712CD301B5
:10171000AA0FBB1F49EF50E04C0F5D1FA40FB51F70
:1017200093FB992790F9C75FDE4F9883C950D1404A
:10173000C65FDE4F1882CA50D14083FB882780F9EC
:10174000C55FDE4F8883CB50D140C45FDE4F188227
:10175000CC50D140E1E0F1E0EC0FFD1FC55FDE4F62
:1017600088819981CB50D140E80FF91F8081C75FF4
:10177000DE4FE881F981C950D14066E0EE0FFF1FCE
:101780006A95E1F7EC0DFD1DE80FF11D20818D91AB
:101790009C911197821B91098D939C9380917E015E
:1017A00090917F01309180012091800133FB33279C
:1017B00030F9C35FDE4F3883CD50D140C25FDE4F7A
:1017C0001882CE50D14023FB222720F9C15FDE4F83
:1017D0002883CF50D140C05FDE4F1882C051D14026
:1017E000E1E0F1E0EC0FFD1FC15FDE4FA881B981A0
:1017F000CF50D140EA0FFB1F2081C35FDE4FE8814D
:10180000F981CD50D14076E0EE0FFF1F7A95E1F7D8
:10181000EC0DFD1DE20FF11D969587959695879528
:10182000808390918001809180012091800123FB31
:10183000222420F8312CD101AA0FBB1FA40FB51F01
:1018400093FB992790F9CF5EDE4F9883C151D14029
:10185000CE5EDE4F1882C251D14083FB882780F9CB
:10186000CD5EDE4F8883C351D140CC5EDE4F1882FF
:10187000C451D140E1E0F1E0EC0FFD1FCD5EDE4F41
:1018800028813981C351D140E20FF31F8081CF5E9F
:10189000DE4FE881F981C151D14006E0EE0FFF1F14
:1018A0000A95E1F7EC0DFD1DE80FF11D20818D91EA
:1018B0009C911197820F911D8D939C938091800133
:1018C00083FB882780F9CB5EDE4F8883C551D140EA
:1018D000CA5EDE4F1882C651D140E1E0F1E0EC0F64
:1018E000FD1FCB5EDE4F48815981C551D140E40FC9
:1018F000F51F80818F3309F042C18091800183FB05
:10190000882780F9C95EDE4F8883C751D140C85E01
:10191000DE4F1882C851D140E1E0F1E0EC0FFD1F2D
:10192000C95EDE4F88819981C751D140E80FF91F08
:101930001082909180018091800193FB992790F90A
:10194000C75EDE4F9883C951D140C65EDE4F188214
:10195000CA51D140C75EDE4FE881F981C951D140FB
:10196000EE0FFF1F25EF30E02C0F3D1FE20FF31F9E
:1019700083FB882780F9C55EDE4F8883CB51D14039
:10198000C45EDE4F1882CC51D140C55EDE4FA881C7
:10199000B981CB51D140AA0FBB1F49EF50E04C0F8A
:1019A0005D1FA40FB51F8D919C9136E0969587958C
:1019B0003A95E1F7918380838091800183FDFEC099
:1019C0008091800188608093800182E00E94DE0621
:1019D0008091800138CECC54DF4F3881C45BD04039
:1019E000CA5FDE4F3883C650D140E32EF12CCB5472
:1019F000DF4F4880C55BD040EDEFF0E0EC0FFD1FFE
:101A0000EE0DFF1D40828701000F111FF401E00F52
:101A1000F11F60817181EDEEF0E0EC0FFD1FE00F32
:101A2000F11F442D808191810E940809F801EB5833
:101A3000FE4F48EA51E6E49E9001E59E300DF49E8B
:101A4000300D11242C53364F820F931F91838083C6
:101A5000CF57DF4F5882C158D040CA5FDE4F588100
:101A6000C650D140CE57DF4F5883C258D040CD57D3
:101A7000DF4F4882C358D040CD5FDE4F4881C3500E
:101A8000D140BE016F577F4FCE018D549F4F0E94B2
:101A9000380ACD5FDE4F8883C350D14080E0CD5FF0
:101AA000DE4F9881C350D1408917D0F0CC54DF4F1E
:101AB0008881C45BD040F501E80FF11D90811F9231
:101AC0009F931F928F93A5E2B1E0BF93AF930E94C3
:101AD0003F0E0F900F900F900F900F900F9002CE2F
:101AE00011E0180FE3EBF0E0EC0FFD1FE80FF11D24
:101AF00080810E945808812FD2CFCF57DF4F588264
:101B0000C158D040CC54DF4FE881C45BD040CE57A1
:101B1000DF4FE883C258D040F0E0EE0FFF1F25EF03
:101B200030E02C0F3D1FE20FF31F8081CD57DF4FB8
:101B30008883C358D04043E0BE016F577F4FCE012A
:101B40008D549F4F0E94380ACD5FDE4F8883C3506B
:101B5000D14080E0CD5FDE4F9881C350D1408917DE
:101B600008F0C0CD11E0180FE3EBF0E0EC0FFD1F23
:101B7000E80FF11D80810E945808812FEBCF8091E2
:101B8000800183FB882780F9C95FDE4F8883C750B7
:101B9000D140C85FDE4F1882C850D140E1E0F1E08B
:101BA000EC0FFD1FC95FDE4FA881B981C750D1403E
:101BB000EA0FFB1F80818F5F8083BBCE8091800105
:101BC000877F8093800183E001CFAA1BBB1B51E17B
:101BD00007C0AA1FBB1FA617B70710F0A61BB70B9D
:101BE000881F991F5A95A9F780959095BC01CD0142
:101BF0000895A1E21A2EAA1BBB1BFD010DC0AA1F4E
:101C0000BB1FEE1FFF1FA217B307E407F50720F065
:101C1000A21BB30BE40BF50B661F771F881F991FE0
:101C20001A9469F760957095809590959B01AC0129
:101C3000BD01CF010895EE0FFF1F0590F491E02D37
:101C4000099497FB10F8169400080F93083098F049
:101C50000850232F342F452F562F672F782F892F89
:101C6000902DF4CF0594979587957795679557951F
:101C70004795379527950A95AAF70F910895A0E003
:101C8000B0E0E5E4FEE00C940C11AE014B5F5F4F59
:101C9000FA0161917191AF01809184019091850168
:101CA0000E94850EE2E00C9428110F931F93CF93AE
:101CB000DF93E0918401F0918501238121FF1BC016
:101CC0008C01D0E0C0E0F80181918F016091840126
:101CD00070918501DB011896ED91FC91199788238D
:101CE00031F00995892B79F3DFEFCFEFECCF8AE064
:101CF0000995892B19F08FEF9FEF02C08D2F9C2F34
:101D0000DF91CF911F910F910895ACE0B0E0EBE827
:101D1000FEE00C94FC106C017B018A01FC0117822F
:101D20001682838181FFBEC1CE0101964C01F6016E
:101D30009381F70193FD859193FF81917F01882322
:101D400009F4ACC1853239F493FD859193FF8191FB
:101D50007F01853229F4B60190E00E946E10E7CF32
:101D6000512C312C20E02032A0F48B3269F030F479
:101D7000803259F0833269F420612CC08D3239F001
:101D8000803339F4216026C02260246023C028609B
:101D900021C027FD27C030ED380F3A3078F426FFF8
:101DA00006C0FAE05F9E300D1124532E13C08AE066
:101DB000389E300D1124332E20620CC08E3221F457
:101DC00026FD6CC1206406C08C3611F4206802C068
:101DD000883641F4F70193FD859193FF81917F014E
:101DE0008111C1CF982F9F7D9554933028F40C5FBB
:101DF0001F4F9FE399830DC0833631F0833771F015
:101E0000833509F05BC022C0F801808189830E5FB1
:101E10001F4F44244394512C540115C03801F2E063
:101E20006F0E711CF801A080B18026FF03C0652DE4
:101E300070E002C06FEF7FEFC5012C870E94631036
:101E40002C0183012C852F77222E17C03801F2E058
:101E50006F0E711CF801A080B18026FF03C0652DB4
:101E600070E002C06FEF7FEFC5012C870E94581011
:101E70002C012C852068222E830123FC1BC0832D7E
:101E800090E048165906B0F4B60180E290E00E9456
:101E90006E103A94F4CFF50127FC859127FE8191CD
:101EA0005F01B60190E00E946E1031103A94F1E0AB
:101EB0004F1A51084114510471F7E6C0843611F0ED
:101EC000893639F5F80127FF07C060817181828169
:101ED00093810C5F1F4F08C060817181072E000C39
:101EE000880B990B0E5F1F4F2F76722E97FF09C03C
:101EF00090958095709561957F4F8F4F9F4F20688B
:101F0000722E2AE030E0A4010E949E10A82EA8188C
:101F100044C0853729F42F7EB22E2AE030E025C058
:101F2000F22FF97FBF2E8F36C1F018F4883579F083
:101F3000B5C0803719F0883721F0B0C02F2F20614D
:101F4000B22EB4FE0DC08B2D8460B82E09C024FFC4
:101F50000AC09F2F9660B92E06C028E030E005C069
:101F600020E130E002C020E132E0F801B7FE07C016
:101F700060817181828193810C5F1F4F06C06081F7
:101F8000718180E090E00E5F1F4FA4010E949E10BF
:101F9000A82EA818FB2DFF777F2E76FE0BC0372DBD
:101FA0003E7FA51450F474FE0AC072FC08C0372DA1
:101FB0003E7E05C0BA2C372D03C0BA2C01C0B52C0B
:101FC00034FF0DC0FE01EA0DF11D8081803311F454
:101FD000397E09C032FF06C0B394B39404C0832F86
:101FE000867809F0B39433FD13C030FF06C0B314F4
:101FF00098F43A0C532C5B1810C0B31470F4B6016B
:1020000080E290E03C870E946E10B3943C85F5CF4F
:10201000B31418F43B1802C05A2C312C34FF12C0F0
:10202000B60180E390E03C870E946E103C8532FF51
:1020300017C031FD03C088E790E002C088E590E05A
:10204000B6010CC0832F867859F031FF02C08BE2B5
:1020500001C080E237FD8DE2B60190E00E946E1073
:10206000A51438F4B60180E390E00E946E105A94F3
:10207000F7CFAA94F401EA0DF11D8081B60190E03A
:102080000E946E10A110F5CF332009F450CEB60196
:1020900080E290E00E946E103A94F6CFF6018681BD
:1020A000978102C08FEF9FEF2C96E2E10C941811FC
:1020B000FC010590615070400110D8F78095909513
:1020C0008E0F9F1F0895FC01615070400190011018
:1020D000D8F7809590958E0F9F1F08950F931F93AB
:1020E000CF93DF93182F092FEB018B8181FD03C064
:1020F0008FEF9FEF1EC082FF0FC02E813F818C812A
:102100009D812817390774F4E881F981CF01019680
:1021100099838883108306C0E885F985812F099506
:10212000892B31F78E819F8101969F838E83812F2A
:10213000902FDF91CF911F910F910895FA01AA2757
:10214000283051F1203181F1E8946F936E7F6E5FFA
:102150007F4F8F4F9F4FAF4FB1E03ED0B4E03CD0A8
:10216000670F781F891F9A1FA11D680F791F8A1F8B
:10217000911DA11D6A0F711D811D911DA11D20D0F2
:1021800009F468943F912AE0269F11243019305DAC
:102190003193DEF6CF010895462F4770405D41939D
:1021A000B3E00FD0C9F7F6CF462F4F70405D4A33EA
:1021B00018F0495D31FD4052419302D0A9F7EACFB2
:1021C000B4E0A6959795879577956795BA95C9F7E1
:1021D00000976105710508959B01AC010A2E0694D4
:1021E0005795479537952795BA95C9F7620F731F8D
:1021F000841F951FA01D08952F923F924F925F92CA
:102200006F927F928F929F92AF92BF92CF92DF9206
:10221000EF92FF920F931F93CF93DF93CDB7DEB76B
:10222000CA1BDB0B0FB6F894DEBF0FBECDBF0994FF
:102230002A88398848885F846E847D848C849B8456
:10224000AA84B984C884DF80EE80FD800C811B8164
:10225000AA81B981CE0FD11D0FB6F894DEBF0FBE93
:0A226000CDBFED010895F894FFCF03
:10226A0000000003000000003808530000002D2D74
:10227A00204572726F206E6F20436865636B5375D9
:10228A006D202D2D002D2D2050574D203D202564E9
:10229A0020706374203D202564202D2D200A000023
:00000001FF
